{
  "contractName": "HealthcareStableCoin",
  "abi": [
    {
      "inputs": [],
      "stateMutability": "nonpayable",
      "type": "constructor"
    },
    {
      "anonymous": false,
      "inputs": [
        {
          "indexed": true,
          "internalType": "address",
          "name": "owner",
          "type": "address"
        },
        {
          "indexed": true,
          "internalType": "address",
          "name": "spender",
          "type": "address"
        },
        {
          "indexed": false,
          "internalType": "uint256",
          "name": "value",
          "type": "uint256"
        }
      ],
      "name": "Approval",
      "type": "event"
    },
    {
      "anonymous": false,
      "inputs": [
        {
          "indexed": true,
          "internalType": "address",
          "name": "previousOwner",
          "type": "address"
        },
        {
          "indexed": true,
          "internalType": "address",
          "name": "newOwner",
          "type": "address"
        }
      ],
      "name": "OwnershipTransferred",
      "type": "event"
    },
    {
      "anonymous": false,
      "inputs": [
        {
          "indexed": true,
          "internalType": "address",
          "name": "from",
          "type": "address"
        },
        {
          "indexed": true,
          "internalType": "address",
          "name": "to",
          "type": "address"
        },
        {
          "indexed": false,
          "internalType": "uint256",
          "name": "value",
          "type": "uint256"
        }
      ],
      "name": "Transfer",
      "type": "event"
    },
    {
      "inputs": [
        {
          "internalType": "address",
          "name": "owner",
          "type": "address"
        },
        {
          "internalType": "address",
          "name": "spender",
          "type": "address"
        }
      ],
      "name": "allowance",
      "outputs": [
        {
          "internalType": "uint256",
          "name": "",
          "type": "uint256"
        }
      ],
      "stateMutability": "view",
      "type": "function",
      "constant": true
    },
    {
      "inputs": [],
      "name": "annualAllowance",
      "outputs": [
        {
          "internalType": "uint256",
          "name": "",
          "type": "uint256"
        }
      ],
      "stateMutability": "view",
      "type": "function",
      "constant": true
    },
    {
      "inputs": [
        {
          "internalType": "address",
          "name": "spender",
          "type": "address"
        },
        {
          "internalType": "uint256",
          "name": "amount",
          "type": "uint256"
        }
      ],
      "name": "approve",
      "outputs": [
        {
          "internalType": "bool",
          "name": "",
          "type": "bool"
        }
      ],
      "stateMutability": "nonpayable",
      "type": "function"
    },
    {
      "inputs": [
        {
          "internalType": "address",
          "name": "",
          "type": "address"
        }
      ],
      "name": "approvedProviders",
      "outputs": [
        {
          "internalType": "bool",
          "name": "",
          "type": "bool"
        }
      ],
      "stateMutability": "view",
      "type": "function",
      "constant": true
    },
    {
      "inputs": [
        {
          "internalType": "address",
          "name": "account",
          "type": "address"
        }
      ],
      "name": "balanceOf",
      "outputs": [
        {
          "internalType": "uint256",
          "name": "",
          "type": "uint256"
        }
      ],
      "stateMutability": "view",
      "type": "function",
      "constant": true
    },
    {
      "inputs": [],
      "name": "decimals",
      "outputs": [
        {
          "internalType": "uint8",
          "name": "",
          "type": "uint8"
        }
      ],
      "stateMutability": "view",
      "type": "function",
      "constant": true
    },
    {
      "inputs": [
        {
          "internalType": "address",
          "name": "spender",
          "type": "address"
        },
        {
          "internalType": "uint256",
          "name": "subtractedValue",
          "type": "uint256"
        }
      ],
      "name": "decreaseAllowance",
      "outputs": [
        {
          "internalType": "bool",
          "name": "",
          "type": "bool"
        }
      ],
      "stateMutability": "nonpayable",
      "type": "function"
    },
    {
      "inputs": [
        {
          "internalType": "address",
          "name": "",
          "type": "address"
        }
      ],
      "name": "eligibleCitizens",
      "outputs": [
        {
          "internalType": "bool",
          "name": "",
          "type": "bool"
        }
      ],
      "stateMutability": "view",
      "type": "function",
      "constant": true
    },
    {
      "inputs": [
        {
          "internalType": "address",
          "name": "spender",
          "type": "address"
        },
        {
          "internalType": "uint256",
          "name": "addedValue",
          "type": "uint256"
        }
      ],
      "name": "increaseAllowance",
      "outputs": [
        {
          "internalType": "bool",
          "name": "",
          "type": "bool"
        }
      ],
      "stateMutability": "nonpayable",
      "type": "function"
    },
    {
      "inputs": [],
      "name": "name",
      "outputs": [
        {
          "internalType": "string",
          "name": "",
          "type": "string"
        }
      ],
      "stateMutability": "view",
      "type": "function",
      "constant": true
    },
    {
      "inputs": [],
      "name": "owner",
      "outputs": [
        {
          "internalType": "address",
          "name": "",
          "type": "address"
        }
      ],
      "stateMutability": "view",
      "type": "function",
      "constant": true
    },
    {
      "inputs": [],
      "name": "renounceOwnership",
      "outputs": [],
      "stateMutability": "nonpayable",
      "type": "function"
    },
    {
      "inputs": [],
      "name": "symbol",
      "outputs": [
        {
          "internalType": "string",
          "name": "",
          "type": "string"
        }
      ],
      "stateMutability": "view",
      "type": "function",
      "constant": true
    },
    {
      "inputs": [],
      "name": "totalSupply",
      "outputs": [
        {
          "internalType": "uint256",
          "name": "",
          "type": "uint256"
        }
      ],
      "stateMutability": "view",
      "type": "function",
      "constant": true
    },
    {
      "inputs": [
        {
          "internalType": "address",
          "name": "to",
          "type": "address"
        },
        {
          "internalType": "uint256",
          "name": "amount",
          "type": "uint256"
        }
      ],
      "name": "transfer",
      "outputs": [
        {
          "internalType": "bool",
          "name": "",
          "type": "bool"
        }
      ],
      "stateMutability": "nonpayable",
      "type": "function"
    },
    {
      "inputs": [
        {
          "internalType": "address",
          "name": "from",
          "type": "address"
        },
        {
          "internalType": "address",
          "name": "to",
          "type": "address"
        },
        {
          "internalType": "uint256",
          "name": "amount",
          "type": "uint256"
        }
      ],
      "name": "transferFrom",
      "outputs": [
        {
          "internalType": "bool",
          "name": "",
          "type": "bool"
        }
      ],
      "stateMutability": "nonpayable",
      "type": "function"
    },
    {
      "inputs": [
        {
          "internalType": "address",
          "name": "newOwner",
          "type": "address"
        }
      ],
      "name": "transferOwnership",
      "outputs": [],
      "stateMutability": "nonpayable",
      "type": "function"
    },
    {
      "inputs": [
        {
          "internalType": "address",
          "name": "to",
          "type": "address"
        },
        {
          "internalType": "uint256",
          "name": "amount",
          "type": "uint256"
        }
      ],
      "name": "mint",
      "outputs": [],
      "stateMutability": "nonpayable",
      "type": "function"
    },
    {
      "inputs": [
        {
          "internalType": "address",
          "name": "recipient",
          "type": "address"
        },
        {
          "internalType": "uint256",
          "name": "amount",
          "type": "uint256"
        },
        {
          "internalType": "string",
          "name": "serviceType",
          "type": "string"
        }
      ],
      "name": "transferToken",
      "outputs": [],
      "stateMutability": "nonpayable",
      "type": "function"
    },
    {
      "inputs": [
        {
          "internalType": "address",
          "name": "patient",
          "type": "address"
        }
      ],
      "name": "getFlatTransactions",
      "outputs": [
        {
          "internalType": "address[]",
          "name": "providers",
          "type": "address[]"
        },
        {
          "internalType": "uint256[]",
          "name": "amounts",
          "type": "uint256[]"
        },
        {
          "internalType": "string[]",
          "name": "serviceTypes",
          "type": "string[]"
        },
        {
          "internalType": "uint256[]",
          "name": "timestamps",
          "type": "uint256[]"
        }
      ],
      "stateMutability": "view",
      "type": "function",
      "constant": true
    },
    {
      "inputs": [
        {
          "internalType": "address",
          "name": "provider",
          "type": "address"
        }
      ],
      "name": "addProvider",
      "outputs": [],
      "stateMutability": "nonpayable",
      "type": "function"
    },
    {
      "inputs": [
        {
          "internalType": "address",
          "name": "provider",
          "type": "address"
        }
      ],
      "name": "removeProvider",
      "outputs": [],
      "stateMutability": "nonpayable",
      "type": "function"
    },
    {
      "inputs": [
        {
          "internalType": "address",
          "name": "citizen",
          "type": "address"
        }
      ],
      "name": "registerCitizen",
      "outputs": [],
      "stateMutability": "nonpayable",
      "type": "function"
    },
    {
      "inputs": [
        {
          "internalType": "address",
          "name": "citizen",
          "type": "address"
        }
      ],
      "name": "grantAllowance",
      "outputs": [],
      "stateMutability": "nonpayable",
      "type": "function"
    },
    {
      "inputs": [],
      "name": "viewWallet",
      "outputs": [
        {
          "internalType": "uint256",
          "name": "",
          "type": "uint256"
        }
      ],
      "stateMutability": "view",
      "type": "function",
      "constant": true
    },
    {
      "inputs": [
        {
          "internalType": "address",
          "name": "citizen",
          "type": "address"
        },
        {
          "internalType": "uint256",
          "name": "amount",
          "type": "uint256"
        }
      ],
      "name": "emergencyGrant",
      "outputs": [],
      "stateMutability": "nonpayable",
      "type": "function"
    },
    {
      "inputs": [
        {
          "internalType": "address",
          "name": "patient",
          "type": "address"
        },
        {
          "internalType": "uint256",
          "name": "amount",
          "type": "uint256"
        },
        {
          "internalType": "string",
          "name": "serviceType",
          "type": "string"
        }
      ],
      "name": "deductTokensFrom",
      "outputs": [],
      "stateMutability": "nonpayable",
      "type": "function"
    },
    {
      "inputs": [
        {
          "internalType": "address",
          "name": "patient",
          "type": "address"
        }
      ],
      "name": "getTransactions",
      "outputs": [
        {
          "components": [
            {
              "internalType": "address",
              "name": "patient",
              "type": "address"
            },
            {
              "internalType": "address",
              "name": "provider",
              "type": "address"
            },
            {
              "internalType": "uint256",
              "name": "amount",
              "type": "uint256"
            },
            {
              "internalType": "string",
              "name": "serviceType",
              "type": "string"
            },
            {
              "internalType": "uint256",
              "name": "timestamp",
              "type": "uint256"
            }
          ],
          "internalType": "struct HealthcareStableCoin.MedicalTransaction[]",
          "name": "",
          "type": "tuple[]"
        }
      ],
      "stateMutability": "view",
      "type": "function",
      "constant": true
    },
    {
      "inputs": [
        {
          "internalType": "address",
          "name": "patient",
          "type": "address"
        }
      ],
      "name": "averageCost",
      "outputs": [
        {
          "internalType": "uint256",
          "name": "",
          "type": "uint256"
        }
      ],
      "stateMutability": "view",
      "type": "function",
      "constant": true
    },
    {
      "inputs": [
        {
          "internalType": "string",
          "name": "serviceType",
          "type": "string"
        }
      ],
      "name": "compareCost",
      "outputs": [
        {
          "internalType": "uint256",
          "name": "average",
          "type": "uint256"
        }
      ],
      "stateMutability": "view",
      "type": "function",
      "constant": true
    }
  ],
  "bytecode": "0x6080604052683635c9adc5dea000006009553480156200001e57600080fd5b506040518060400160405280601681526020017f4865616c74686361726520537461626c6520436f696e000000000000000000008152506040518060400160405280600381526020017f48534300000000000000000000000000000000000000000000000000000000008152508160039080519060200190620000a3929190620004c9565b508060049080519060200190620000bc929190620004c9565b505050620000df620000d36200012460201b60201c565b6200012c60201b60201c565b6200011e33620000f4620001f260201b60201c565b600a620001029190620006d4565b620f424062000112919062000811565b620001fb60201b60201c565b62000978565b600033905090565b6000600560009054906101000a900473ffffffffffffffffffffffffffffffffffffffff16905081600560006101000a81548173ffffffffffffffffffffffffffffffffffffffff021916908373ffffffffffffffffffffffffffffffffffffffff1602179055508173ffffffffffffffffffffffffffffffffffffffff168173ffffffffffffffffffffffffffffffffffffffff167f8be0079c531659141344cd1fd0a4f28419497f9722a3daafe3b4186f6b6457e060405160405180910390a35050565b60006012905090565b600073ffffffffffffffffffffffffffffffffffffffff168273ffffffffffffffffffffffffffffffffffffffff1614156200026e576040517f08c379a00000000000000000000000000000000000000000000000000000000081526004016200026590620005cc565b60405180910390fd5b62000282600083836200036960201b60201c565b80600260008282546200029691906200061c565b92505081905550806000808473ffffffffffffffffffffffffffffffffffffffff1673ffffffffffffffffffffffffffffffffffffffff168152602001908152602001600020600082825401925050819055508173ffffffffffffffffffffffffffffffffffffffff16600073ffffffffffffffffffffffffffffffffffffffff167fddf252ad1be2c89b69c2b068fc378daa952ba7f163c4a11628f55a4df523b3ef83604051620003499190620005ee565b60405180910390a362000365600083836200036e60201b60201c565b5050565b505050565b6200037f82620003ed60201b60201c565b620003e857600a829080600181540180825580915050600190039060005260206000200160009091909190916101000a81548173ffffffffffffffffffffffffffffffffffffffff021916908373ffffffffffffffffffffffffffffffffffffffff1602179055505b505050565b600080600090505b600a80549050811015620004be578273ffffffffffffffffffffffffffffffffffffffff16600a828154811062000455577f4e487b7100000000000000000000000000000000000000000000000000000000600052603260045260246000fd5b9060005260206000200160009054906101000a900473ffffffffffffffffffffffffffffffffffffffff1673ffffffffffffffffffffffffffffffffffffffff161415620004a8576001915050620004c4565b8080620004b590620008bf565b915050620003f5565b50600090505b919050565b828054620004d79062000889565b90600052602060002090601f016020900481019282620004fb576000855562000547565b82601f106200051657805160ff191683800117855562000547565b8280016001018555821562000547579182015b828111156200054657825182559160200191906001019062000529565b5b5090506200055691906200055a565b5090565b5b80821115620005755760008160009055506001016200055b565b5090565b600062000588601f836200060b565b91507f45524332303a206d696e7420746f20746865207a65726f2061646472657373006000830152602082019050919050565b620005c68162000872565b82525050565b60006020820190508181036000830152620005e78162000579565b9050919050565b6000602082019050620006056000830184620005bb565b92915050565b600082825260208201905092915050565b6000620006298262000872565b9150620006368362000872565b9250827fffffffffffffffffffffffffffffffffffffffffffffffffffffffffffffffff038211156200066e576200066d6200090d565b5b828201905092915050565b6000808291508390505b6001851115620006cb57808604811115620006a357620006a26200090d565b5b6001851615620006b35780820291505b8081029050620006c3856200096b565b945062000683565b94509492505050565b6000620006e18262000872565b9150620006ee836200087c565b92506200071d7fffffffffffffffffffffffffffffffffffffffffffffffffffffffffffffffff848462000725565b905092915050565b6000826200073757600190506200080a565b816200074757600090506200080a565b81600181146200076057600281146200076b57620007a1565b60019150506200080a565b60ff84111562000780576200077f6200090d565b5b8360020a9150848211156200079a57620007996200090d565b5b506200080a565b5060208310610133831016604e8410600b8410161715620007db5782820a905083811115620007d557620007d46200090d565b5b6200080a565b620007ea848484600162000679565b925090508184048111156200080457620008036200090d565b5b81810290505b9392505050565b60006200081e8262000872565b91506200082b8362000872565b9250817fffffffffffffffffffffffffffffffffffffffffffffffffffffffffffffffff04831182151516156200086757620008666200090d565b5b828202905092915050565b6000819050919050565b600060ff82169050919050565b60006002820490506001821680620008a257607f821691505b60208210811415620008b957620008b86200093c565b5b50919050565b6000620008cc8262000872565b91507fffffffffffffffffffffffffffffffffffffffffffffffffffffffffffffffff8214156200090257620009016200090d565b5b600182019050919050565b7f4e487b7100000000000000000000000000000000000000000000000000000000600052601160045260246000fd5b7f4e487b7100000000000000000000000000000000000000000000000000000000600052602260045260246000fd5b60008160011c9050919050565b61368680620009886000396000f3fe608060405234801561001057600080fd5b50600436106101da5760003560e01c806369d614a41161010457806395d89b41116100a2578063aa78ce2211610071578063aa78ce2214610592578063c5a316b1146105ae578063dd62ed3e146105de578063f2fde38b1461060e576101da565b806395d89b41146104f8578063a457c2d714610516578063a9059cbb14610546578063a9a574eb14610576576101da565b80637ea41543116100de5780637ea41543146104725780638139ef9a1461048e5780638a355a57146104be5780638da5cb5b146104da576101da565b806369d614a41461040857806370a0823114610438578063715018a614610468576101da565b806318160ddd1161017c578063395093511161014b578063395093511461038257806340c10f19146103b257806346e2577a146103ce5780635283f146146103ea576101da565b806318160ddd146102f857806323b872dd14610316578063313ce56714610346578063322d827614610364576101da565b80630e3f5118116101b85780630e3f5118146102605780630f8cda201461029057806310228dc3146102c057806315d7a2f9146102dc576101da565b806306fdde03146101df578063095ea7b3146101fd5780630b65debb1461022d575b600080fd5b6101e761062a565b6040516101f49190613072565b60405180910390f35b6102176004803603810190610212919061278b565b6106bc565b6040516102249190613057565b60405180910390f35b610247600480360381019061024291906126d7565b6106df565b6040516102579493929190612fd4565b60405180910390f35b61027a6004803603810190610275919061282e565b610d1c565b6040516102879190613214565b60405180910390f35b6102aa60048036038101906102a591906126d7565b611098565b6040516102b79190613035565b60405180910390f35b6102da60048036038101906102d591906127c7565b611288565b005b6102f660048036038101906102f1919061278b565b6112a4565b005b6103006112ba565b60405161030d9190613214565b60405180910390f35b610330600480360381019061032b919061273c565b6112c4565b60405161033d9190613057565b60405180910390f35b61034e6112f3565b60405161035b919061322f565b60405180910390f35b61036c6112fc565b6040516103799190613214565b60405180910390f35b61039c6004803603810190610397919061278b565b611302565b6040516103a99190613057565b60405180910390f35b6103cc60048036038101906103c7919061278b565b611339565b005b6103e860048036038101906103e391906126d7565b61134f565b005b6103f26113b2565b6040516103ff9190613214565b60405180910390f35b610422600480360381019061041d91906126d7565b6113c2565b60405161042f9190613057565b60405180910390f35b610452600480360381019061044d91906126d7565b6113e2565b60405161045f9190613214565b60405180910390f35b61047061142a565b005b61048c600480360381019061048791906126d7565b61143e565b005b6104a860048036038101906104a391906126d7565b6114e1565b6040516104b59190613057565b60405180910390f35b6104d860048036038101906104d391906126d7565b611501565b005b6104e2611564565b6040516104ef9190612fb9565b60405180910390f35b61050061158e565b60405161050d9190613072565b60405180910390f35b610530600480360381019061052b919061278b565b611620565b60405161053d9190613057565b60405180910390f35b610560600480360381019061055b919061278b565b611697565b60405161056d9190613057565b60405180910390f35b610590600480360381019061058b91906127c7565b6116ba565b005b6105ac60048036038101906105a791906126d7565b611762565b005b6105c860048036038101906105c391906126d7565b6117c5565b6040516105d59190613214565b60405180910390f35b6105f860048036038101906105f39190612700565b611a53565b6040516106059190613214565b60405180910390f35b610628600480360381019061062391906126d7565b611ada565b005b606060038054610639906134da565b80601f0160208091040260200160405190810160405280929190818152602001828054610665906134da565b80156106b25780601f10610687576101008083540402835291602001916106b2565b820191906000526020600020905b81548152906001019060200180831161069557829003601f168201915b5050505050905090565b6000806106c7611b5e565b90506106d4818585611b66565b600191505092915050565b6060806060806000600860008773ffffffffffffffffffffffffffffffffffffffff1673ffffffffffffffffffffffffffffffffffffffff168152602001908152602001600020805480602002602001604051908101604052809291908181526020016000905b828210156108ca57838290600052602060002090600502016040518060a00160405290816000820160009054906101000a900473ffffffffffffffffffffffffffffffffffffffff1673ffffffffffffffffffffffffffffffffffffffff1673ffffffffffffffffffffffffffffffffffffffff1681526020016001820160009054906101000a900473ffffffffffffffffffffffffffffffffffffffff1673ffffffffffffffffffffffffffffffffffffffff1673ffffffffffffffffffffffffffffffffffffffff1681526020016002820154815260200160038201805461082f906134da565b80601f016020809104026020016040519081016040528092919081815260200182805461085b906134da565b80156108a85780601f1061087d576101008083540402835291602001916108a8565b820191906000526020600020905b81548152906001019060200180831161088b57829003601f168201915b5050505050815260200160048201548152505081526020019060010190610746565b5050505090506000815190508067ffffffffffffffff811115610916577f4e487b7100000000000000000000000000000000000000000000000000000000600052604160045260246000fd5b6040519080825280602002602001820160405280156109445781602001602082028036833780820191505090505b5095508067ffffffffffffffff811115610987577f4e487b7100000000000000000000000000000000000000000000000000000000600052604160045260246000fd5b6040519080825280602002602001820160405280156109b55781602001602082028036833780820191505090505b5094508067ffffffffffffffff8111156109f8577f4e487b7100000000000000000000000000000000000000000000000000000000600052604160045260246000fd5b604051908082528060200260200182016040528015610a2b57816020015b6060815260200190600190039081610a165790505b5093508067ffffffffffffffff811115610a6e577f4e487b7100000000000000000000000000000000000000000000000000000000600052604160045260246000fd5b604051908082528060200260200182016040528015610a9c5781602001602082028036833780820191505090505b50925060005b81811015610d1257828181518110610ae3577f4e487b7100000000000000000000000000000000000000000000000000000000600052603260045260246000fd5b602002602001015160200151878281518110610b28577f4e487b7100000000000000000000000000000000000000000000000000000000600052603260045260246000fd5b602002602001019073ffffffffffffffffffffffffffffffffffffffff16908173ffffffffffffffffffffffffffffffffffffffff1681525050828181518110610b9b577f4e487b7100000000000000000000000000000000000000000000000000000000600052603260045260246000fd5b602002602001015160400151868281518110610be0577f4e487b7100000000000000000000000000000000000000000000000000000000600052603260045260246000fd5b602002602001018181525050828181518110610c25577f4e487b7100000000000000000000000000000000000000000000000000000000600052603260045260246000fd5b602002602001015160600151858281518110610c6a577f4e487b7100000000000000000000000000000000000000000000000000000000600052603260045260246000fd5b6020026020010181905250828181518110610cae577f4e487b7100000000000000000000000000000000000000000000000000000000600052603260045260246000fd5b602002602001015160800151848281518110610cf3577f4e487b7100000000000000000000000000000000000000000000000000000000600052603260045260246000fd5b6020026020010181815250508080610d0a9061350c565b915050610aa2565b5050509193509193565b600080600080600090505b600a8054905081101561107257600060086000600a8481548110610d74577f4e487b7100000000000000000000000000000000000000000000000000000000600052603260045260246000fd5b9060005260206000200160009054906101000a900473ffffffffffffffffffffffffffffffffffffffff1673ffffffffffffffffffffffffffffffffffffffff1673ffffffffffffffffffffffffffffffffffffffff168152602001908152602001600020805480602002602001604051908101604052809291908181526020016000905b82821015610f7d57838290600052602060002090600502016040518060a00160405290816000820160009054906101000a900473ffffffffffffffffffffffffffffffffffffffff1673ffffffffffffffffffffffffffffffffffffffff1673ffffffffffffffffffffffffffffffffffffffff1681526020016001820160009054906101000a900473ffffffffffffffffffffffffffffffffffffffff1673ffffffffffffffffffffffffffffffffffffffff1673ffffffffffffffffffffffffffffffffffffffff16815260200160028201548152602001600382018054610ee2906134da565b80601f0160208091040260200160405190810160405280929190818152602001828054610f0e906134da565b8015610f5b5780601f10610f3057610100808354040283529160200191610f5b565b820191906000526020600020905b815481529060010190602001808311610f3e57829003601f168201915b5050505050815260200160048201548152505081526020019060010190610df9565b50505050905060005b815181101561105d578680519060200120828281518110610fd0577f4e487b7100000000000000000000000000000000000000000000000000000000600052603260045260246000fd5b60200260200101516060015180519060200120141561104a57818181518110611022577f4e487b7100000000000000000000000000000000000000000000000000000000600052603260045260246000fd5b6020026020010151604001518561103991906133bc565b945083806110469061350c565b9450505b80806110559061350c565b915050610f86565b5050808061106a9061350c565b915050610d27565b506000811461108c5780826110879190613412565b61108f565b60005b92505050919050565b6060600860008373ffffffffffffffffffffffffffffffffffffffff1673ffffffffffffffffffffffffffffffffffffffff168152602001908152602001600020805480602002602001604051908101604052809291908181526020016000905b8282101561127d57838290600052602060002090600502016040518060a00160405290816000820160009054906101000a900473ffffffffffffffffffffffffffffffffffffffff1673ffffffffffffffffffffffffffffffffffffffff1673ffffffffffffffffffffffffffffffffffffffff1681526020016001820160009054906101000a900473ffffffffffffffffffffffffffffffffffffffff1673ffffffffffffffffffffffffffffffffffffffff1673ffffffffffffffffffffffffffffffffffffffff168152602001600282015481526020016003820180546111e2906134da565b80601f016020809104026020016040519081016040528092919081815260200182805461120e906134da565b801561125b5780601f106112305761010080835404028352916020019161125b565b820191906000526020600020905b81548152906001019060200180831161123e57829003601f168201915b50505050508152602001600482015481525050815260200190600101906110f9565b505050509050919050565b611293338484611d31565b61129f33848484611fa9565b505050565b6112ac61212b565b6112b682826121a9565b5050565b6000600254905090565b6000806112cf611b5e565b90506112dc858285612300565b6112e7858585611d31565b60019150509392505050565b60006012905090565b60095481565b60008061130d611b5e565b905061132e81858561131f8589611a53565b61132991906133bc565b611b66565b600191505092915050565b61134161212b565b61134b82826121a9565b5050565b61135761212b565b6001600660008373ffffffffffffffffffffffffffffffffffffffff1673ffffffffffffffffffffffffffffffffffffffff16815260200190815260200160002060006101000a81548160ff02191690831515021790555050565b60006113bd336113e2565b905090565b60076020528060005260406000206000915054906101000a900460ff1681565b60008060008373ffffffffffffffffffffffffffffffffffffffff1673ffffffffffffffffffffffffffffffffffffffff168152602001908152602001600020549050919050565b61143261212b565b61143c600061238c565b565b61144661212b565b600760008273ffffffffffffffffffffffffffffffffffffffff1673ffffffffffffffffffffffffffffffffffffffff16815260200190815260200160002060009054906101000a900460ff166114d2576040517f08c379a00000000000000000000000000000000000000000000000000000000081526004016114c990613134565b60405180910390fd5b6114de816009546121a9565b50565b60066020528060005260406000206000915054906101000a900460ff1681565b61150961212b565b6000600660008373ffffffffffffffffffffffffffffffffffffffff1673ffffffffffffffffffffffffffffffffffffffff16815260200190815260200160002060006101000a81548160ff02191690831515021790555050565b6000600560009054906101000a900473ffffffffffffffffffffffffffffffffffffffff16905090565b60606004805461159d906134da565b80601f01602080910402602001604051908101604052809291908181526020018280546115c9906134da565b80156116165780601f106115eb57610100808354040283529160200191611616565b820191906000526020600020905b8154815290600101906020018083116115f957829003601f168201915b5050505050905090565b60008061162b611b5e565b905060006116398286611a53565b90508381101561167e576040517f08c379a0000000000000000000000000000000000000000000000000000000008152600401611675906131d4565b60405180910390fd5b61168b8286868403611b66565b60019250505092915050565b6000806116a2611b5e565b90506116af818585611d31565b600191505092915050565b600660003373ffffffffffffffffffffffffffffffffffffffff1673ffffffffffffffffffffffffffffffffffffffff16815260200190815260200160002060009054906101000a900460ff16611746576040517f08c379a000000000000000000000000000000000000000000000000000000000815260040161173d90613194565b60405180910390fd5b611751833384611d31565b61175d83338484611fa9565b505050565b61176a61212b565b6001600760008373ffffffffffffffffffffffffffffffffffffffff1673ffffffffffffffffffffffffffffffffffffffff16815260200190815260200160002060006101000a81548160ff02191690831515021790555050565b600080600860008473ffffffffffffffffffffffffffffffffffffffff1673ffffffffffffffffffffffffffffffffffffffff168152602001908152602001600020805480602002602001604051908101604052809291908181526020016000905b828210156119ab57838290600052602060002090600502016040518060a00160405290816000820160009054906101000a900473ffffffffffffffffffffffffffffffffffffffff1673ffffffffffffffffffffffffffffffffffffffff1673ffffffffffffffffffffffffffffffffffffffff1681526020016001820160009054906101000a900473ffffffffffffffffffffffffffffffffffffffff1673ffffffffffffffffffffffffffffffffffffffff1673ffffffffffffffffffffffffffffffffffffffff16815260200160028201548152602001600382018054611910906134da565b80601f016020809104026020016040519081016040528092919081815260200182805461193c906134da565b80156119895780601f1061195e57610100808354040283529160200191611989565b820191906000526020600020905b81548152906001019060200180831161196c57829003601f168201915b5050505050815260200160048201548152505081526020019060010190611827565b5050505090506000815114156119c5576000915050611a4e565b600080600090505b8251811015611a3b57828181518110611a0f577f4e487b7100000000000000000000000000000000000000000000000000000000600052603260045260246000fd5b60200260200101516040015182611a2691906133bc565b91508080611a339061350c565b9150506119cd565b50815181611a499190613412565b925050505b919050565b6000600160008473ffffffffffffffffffffffffffffffffffffffff1673ffffffffffffffffffffffffffffffffffffffff16815260200190815260200160002060008373ffffffffffffffffffffffffffffffffffffffff1673ffffffffffffffffffffffffffffffffffffffff16815260200190815260200160002054905092915050565b611ae261212b565b600073ffffffffffffffffffffffffffffffffffffffff168173ffffffffffffffffffffffffffffffffffffffff161415611b52576040517f08c379a0000000000000000000000000000000000000000000000000000000008152600401611b49906130b4565b60405180910390fd5b611b5b8161238c565b50565b600033905090565b600073ffffffffffffffffffffffffffffffffffffffff168373ffffffffffffffffffffffffffffffffffffffff161415611bd6576040517f08c379a0000000000000000000000000000000000000000000000000000000008152600401611bcd906131b4565b60405180910390fd5b600073ffffffffffffffffffffffffffffffffffffffff168273ffffffffffffffffffffffffffffffffffffffff161415611c46576040517f08c379a0000000000000000000000000000000000000000000000000000000008152600401611c3d906130d4565b60405180910390fd5b80600160008573ffffffffffffffffffffffffffffffffffffffff1673ffffffffffffffffffffffffffffffffffffffff16815260200190815260200160002060008473ffffffffffffffffffffffffffffffffffffffff1673ffffffffffffffffffffffffffffffffffffffff168152602001908152602001600020819055508173ffffffffffffffffffffffffffffffffffffffff168373ffffffffffffffffffffffffffffffffffffffff167f8c5be1e5ebec7d5bd14f71427d1e84f3dd0314c0f7b2291e5b200ac8c7c3b92583604051611d249190613214565b60405180910390a3505050565b600073ffffffffffffffffffffffffffffffffffffffff168373ffffffffffffffffffffffffffffffffffffffff161415611da1576040517f08c379a0000000000000000000000000000000000000000000000000000000008152600401611d9890613174565b60405180910390fd5b600073ffffffffffffffffffffffffffffffffffffffff168273ffffffffffffffffffffffffffffffffffffffff161415611e11576040517f08c379a0000000000000000000000000000000000000000000000000000000008152600401611e0890613094565b60405180910390fd5b611e1c838383612452565b60008060008573ffffffffffffffffffffffffffffffffffffffff1673ffffffffffffffffffffffffffffffffffffffff16815260200190815260200160002054905081811015611ea2576040517f08c379a0000000000000000000000000000000000000000000000000000000008152600401611e9990613114565b60405180910390fd5b8181036000808673ffffffffffffffffffffffffffffffffffffffff1673ffffffffffffffffffffffffffffffffffffffff16815260200190815260200160002081905550816000808573ffffffffffffffffffffffffffffffffffffffff1673ffffffffffffffffffffffffffffffffffffffff168152602001908152602001600020600082825401925050819055508273ffffffffffffffffffffffffffffffffffffffff168473ffffffffffffffffffffffffffffffffffffffff167fddf252ad1be2c89b69c2b068fc378daa952ba7f163c4a11628f55a4df523b3ef84604051611f909190613214565b60405180910390a3611fa3848484612457565b50505050565b600860008573ffffffffffffffffffffffffffffffffffffffff1673ffffffffffffffffffffffffffffffffffffffff1681526020019081526020016000206040518060a001604052808673ffffffffffffffffffffffffffffffffffffffff1681526020018573ffffffffffffffffffffffffffffffffffffffff16815260200184815260200183815260200142815250908060018154018082558091505060019003906000526020600020906005020160009091909190915060008201518160000160006101000a81548173ffffffffffffffffffffffffffffffffffffffff021916908373ffffffffffffffffffffffffffffffffffffffff16021790555060208201518160010160006101000a81548173ffffffffffffffffffffffffffffffffffffffff021916908373ffffffffffffffffffffffffffffffffffffffff1602179055506040820151816002015560608201518160030190805190602001906121189291906125a2565b5060808201518160040155505050505050565b612133611b5e565b73ffffffffffffffffffffffffffffffffffffffff16612151611564565b73ffffffffffffffffffffffffffffffffffffffff16146121a7576040517f08c379a000000000000000000000000000000000000000000000000000000000815260040161219e90613154565b60405180910390fd5b565b600073ffffffffffffffffffffffffffffffffffffffff168273ffffffffffffffffffffffffffffffffffffffff161415612219576040517f08c379a0000000000000000000000000000000000000000000000000000000008152600401612210906131f4565b60405180910390fd5b61222560008383612452565b806002600082825461223791906133bc565b92505081905550806000808473ffffffffffffffffffffffffffffffffffffffff1673ffffffffffffffffffffffffffffffffffffffff168152602001908152602001600020600082825401925050819055508173ffffffffffffffffffffffffffffffffffffffff16600073ffffffffffffffffffffffffffffffffffffffff167fddf252ad1be2c89b69c2b068fc378daa952ba7f163c4a11628f55a4df523b3ef836040516122e89190613214565b60405180910390a36122fc60008383612457565b5050565b600061230c8484611a53565b90507fffffffffffffffffffffffffffffffffffffffffffffffffffffffffffffffff81146123865781811015612378576040517f08c379a000000000000000000000000000000000000000000000000000000000815260040161236f906130f4565b60405180910390fd5b6123858484848403611b66565b5b50505050565b6000600560009054906101000a900473ffffffffffffffffffffffffffffffffffffffff16905081600560006101000a81548173ffffffffffffffffffffffffffffffffffffffff021916908373ffffffffffffffffffffffffffffffffffffffff1602179055508173ffffffffffffffffffffffffffffffffffffffff168173ffffffffffffffffffffffffffffffffffffffff167f8be0079c531659141344cd1fd0a4f28419497f9722a3daafe3b4186f6b6457e060405160405180910390a35050565b505050565b612460826124cd565b6124c857600a829080600181540180825580915050600190039060005260206000200160009091909190916101000a81548173ffffffffffffffffffffffffffffffffffffffff021916908373ffffffffffffffffffffffffffffffffffffffff1602179055505b505050565b600080600090505b600a80549050811015612597578273ffffffffffffffffffffffffffffffffffffffff16600a8281548110612533577f4e487b7100000000000000000000000000000000000000000000000000000000600052603260045260246000fd5b9060005260206000200160009054906101000a900473ffffffffffffffffffffffffffffffffffffffff1673ffffffffffffffffffffffffffffffffffffffff16141561258457600191505061259d565b808061258f9061350c565b9150506124d5565b50600090505b919050565b8280546125ae906134da565b90600052602060002090601f0160209004810192826125d05760008555612617565b82601f106125e957805160ff1916838001178555612617565b82800160010185558215612617579182015b828111156126165782518255916020019190600101906125fb565b5b5090506126249190612628565b5090565b5b80821115612641576000816000905550600101612629565b5090565b60006126586126538461327b565b61324a565b90508281526020810184848401111561267057600080fd5b61267b848285613498565b509392505050565b60008135905061269281613622565b92915050565b600082601f8301126126a957600080fd5b81356126b9848260208601612645565b91505092915050565b6000813590506126d181613639565b92915050565b6000602082840312156126e957600080fd5b60006126f784828501612683565b91505092915050565b6000806040838503121561271357600080fd5b600061272185828601612683565b925050602061273285828601612683565b9150509250929050565b60008060006060848603121561275157600080fd5b600061275f86828701612683565b935050602061277086828701612683565b9250506040612781868287016126c2565b9150509250925092565b6000806040838503121561279e57600080fd5b60006127ac85828601612683565b92505060206127bd858286016126c2565b9150509250929050565b6000806000606084860312156127dc57600080fd5b60006127ea86828701612683565b93505060206127fb868287016126c2565b925050604084013567ffffffffffffffff81111561281857600080fd5b61282486828701612698565b9150509250925092565b60006020828403121561284057600080fd5b600082013567ffffffffffffffff81111561285a57600080fd5b61286684828501612698565b91505092915050565b600061287b83836128c7565b60208301905092915050565b60006128938383612a9a565b905092915050565b60006128a78383612f16565b905092915050565b60006128bb8383612f8c565b60208301905092915050565b6128d081613443565b82525050565b6128df81613443565b82525050565b60006128f0826132eb565b6128fa8185613356565b9350612905836132ab565b8060005b8381101561293657815161291d888261286f565b975061292883613322565b925050600181019050612909565b5085935050505092915050565b600061294e826132f6565b6129588185613367565b93508360208202850161296a856132bb565b8060005b858110156129a657848403895281516129878582612887565b94506129928361332f565b925060208a0199505060018101905061296e565b50829750879550505050505092915050565b60006129c382613301565b6129cd8185613378565b9350836020820285016129df856132cb565b8060005b85811015612a1b57848403895281516129fc858261289b565b9450612a078361333c565b925060208a019950506001810190506129e3565b50829750879550505050505092915050565b6000612a388261330c565b612a428185613389565b9350612a4d836132db565b8060005b83811015612a7e578151612a6588826128af565b9750612a7083613349565b925050600181019050612a51565b5085935050505092915050565b612a9481613455565b82525050565b6000612aa582613317565b612aaf818561339a565b9350612abf8185602086016134a7565b612ac881613611565b840191505092915050565b6000612ade82613317565b612ae881856133ab565b9350612af88185602086016134a7565b612b0181613611565b840191505092915050565b6000612b196023836133ab565b91507f45524332303a207472616e7366657220746f20746865207a65726f206164647260008301527f65737300000000000000000000000000000000000000000000000000000000006020830152604082019050919050565b6000612b7f6026836133ab565b91507f4f776e61626c653a206e6577206f776e657220697320746865207a65726f206160008301527f64647265737300000000000000000000000000000000000000000000000000006020830152604082019050919050565b6000612be56022836133ab565b91507f45524332303a20617070726f766520746f20746865207a65726f20616464726560008301527f73730000000000000000000000000000000000000000000000000000000000006020830152604082019050919050565b6000612c4b601d836133ab565b91507f45524332303a20696e73756666696369656e7420616c6c6f77616e63650000006000830152602082019050919050565b6000612c8b6026836133ab565b91507f45524332303a207472616e7366657220616d6f756e742065786365656473206260008301527f616c616e636500000000000000000000000000000000000000000000000000006020830152604082019050919050565b6000612cf1600c836133ab565b91507f4e6f7420656c696769626c6500000000000000000000000000000000000000006000830152602082019050919050565b6000612d316020836133ab565b91507f4f776e61626c653a2063616c6c6572206973206e6f7420746865206f776e65726000830152602082019050919050565b6000612d716025836133ab565b91507f45524332303a207472616e736665722066726f6d20746865207a65726f20616460008301527f64726573730000000000000000000000000000000000000000000000000000006020830152604082019050919050565b6000612dd76015836133ab565b91507f556e617574686f72697a65642070726f766964657200000000000000000000006000830152602082019050919050565b6000612e176024836133ab565b91507f45524332303a20617070726f76652066726f6d20746865207a65726f2061646460008301527f72657373000000000000000000000000000000000000000000000000000000006020830152604082019050919050565b6000612e7d6025836133ab565b91507f45524332303a2064656372656173656420616c6c6f77616e63652062656c6f7760008301527f207a65726f0000000000000000000000000000000000000000000000000000006020830152604082019050919050565b6000612ee3601f836133ab565b91507f45524332303a206d696e7420746f20746865207a65726f2061646472657373006000830152602082019050919050565b600060a083016000830151612f2e60008601826128c7565b506020830151612f4160208601826128c7565b506040830151612f546040860182612f8c565b5060608301518482036060860152612f6c8282612a9a565b9150506080830151612f816080860182612f8c565b508091505092915050565b612f9581613481565b82525050565b612fa481613481565b82525050565b612fb38161348b565b82525050565b6000602082019050612fce60008301846128d6565b92915050565b60006080820190508181036000830152612fee81876128e5565b905081810360208301526130028186612a2d565b905081810360408301526130168185612943565b9050818103606083015261302a8184612a2d565b905095945050505050565b6000602082019050818103600083015261304f81846129b8565b905092915050565b600060208201905061306c6000830184612a8b565b92915050565b6000602082019050818103600083015261308c8184612ad3565b905092915050565b600060208201905081810360008301526130ad81612b0c565b9050919050565b600060208201905081810360008301526130cd81612b72565b9050919050565b600060208201905081810360008301526130ed81612bd8565b9050919050565b6000602082019050818103600083015261310d81612c3e565b9050919050565b6000602082019050818103600083015261312d81612c7e565b9050919050565b6000602082019050818103600083015261314d81612ce4565b9050919050565b6000602082019050818103600083015261316d81612d24565b9050919050565b6000602082019050818103600083015261318d81612d64565b9050919050565b600060208201905081810360008301526131ad81612dca565b9050919050565b600060208201905081810360008301526131cd81612e0a565b9050919050565b600060208201905081810360008301526131ed81612e70565b9050919050565b6000602082019050818103600083015261320d81612ed6565b9050919050565b60006020820190506132296000830184612f9b565b92915050565b60006020820190506132446000830184612faa565b92915050565b6000604051905081810181811067ffffffffffffffff82111715613271576132706135e2565b5b8060405250919050565b600067ffffffffffffffff821115613296576132956135e2565b5b601f19601f8301169050602081019050919050565b6000819050602082019050919050565b6000819050602082019050919050565b6000819050602082019050919050565b6000819050602082019050919050565b600081519050919050565b600081519050919050565b600081519050919050565b600081519050919050565b600081519050919050565b6000602082019050919050565b6000602082019050919050565b6000602082019050919050565b6000602082019050919050565b600082825260208201905092915050565b600082825260208201905092915050565b600082825260208201905092915050565b600082825260208201905092915050565b600082825260208201905092915050565b600082825260208201905092915050565b60006133c782613481565b91506133d283613481565b9250827fffffffffffffffffffffffffffffffffffffffffffffffffffffffffffffffff0382111561340757613406613555565b5b828201905092915050565b600061341d82613481565b915061342883613481565b92508261343857613437613584565b5b828204905092915050565b600061344e82613461565b9050919050565b60008115159050919050565b600073ffffffffffffffffffffffffffffffffffffffff82169050919050565b6000819050919050565b600060ff82169050919050565b82818337600083830152505050565b60005b838110156134c55780820151818401526020810190506134aa565b838111156134d4576000848401525b50505050565b600060028204905060018216806134f257607f821691505b60208210811415613506576135056135b3565b5b50919050565b600061351782613481565b91507fffffffffffffffffffffffffffffffffffffffffffffffffffffffffffffffff82141561354a57613549613555565b5b600182019050919050565b7f4e487b7100000000000000000000000000000000000000000000000000000000600052601160045260246000fd5b7f4e487b7100000000000000000000000000000000000000000000000000000000600052601260045260246000fd5b7f4e487b7100000000000000000000000000000000000000000000000000000000600052602260045260246000fd5b7f4e487b7100000000000000000000000000000000000000000000000000000000600052604160045260246000fd5b6000601f19601f8301169050919050565b61362b81613443565b811461363657600080fd5b50565b61364281613481565b811461364d57600080fd5b5056fea26469706673582212200e26aaf7b978547db161f6bd1dfacea0df2065370947b18f1da784e3ef419e0164736f6c63430008000033",
  "immutableReferences": {},
  "source": "// SPDX-License-Identifier: MIT\r\npragma solidity ^0.8.0;\r\n\r\nimport \"@openzeppelin/contracts/token/ERC20/ERC20.sol\";\r\nimport \"@openzeppelin/contracts/access/Ownable.sol\";\r\n\r\ncontract HealthcareStableCoin is ERC20, Ownable {\r\n    struct MedicalTransaction {\r\n        address patient;\r\n        address provider;\r\n        uint256 amount;\r\n        string serviceType;\r\n        uint256 timestamp;\r\n    }\r\n\r\n    mapping(address => bool) public approvedProviders;\r\n    mapping(address => bool) public eligibleCitizens;\r\n    mapping(address => MedicalTransaction[]) private _transactions;\r\n\r\n    uint256 public annualAllowance = 1000 * 10 ** 18;\r\n\r\n    constructor() ERC20(\"Healthcare Stable Coin\", \"HSC\") {\r\n        _mint(msg.sender, 1_000_000 * 10 ** decimals());\r\n    }\r\n\r\n    function mint(address to, uint256 amount) public onlyOwner {\r\n    _mint(to, amount);\r\n}\r\n\r\nfunction transferToken(address recipient, uint256 amount, string memory serviceType) public {\r\n    _transfer(msg.sender, recipient, amount);\r\n    _recordTransaction(msg.sender, recipient, amount, serviceType);\r\n}\r\n\r\n\r\n    function getFlatTransactions(address patient) external view returns (\r\n    address[] memory providers,\r\n    uint256[] memory amounts,\r\n    string[] memory serviceTypes,\r\n    uint256[] memory timestamps\r\n) {\r\n    MedicalTransaction[] memory txs = _transactions[patient];\r\n    uint len = txs.length;\r\n\r\n    providers = new address[](len);\r\n    amounts = new uint256[](len);\r\n    serviceTypes = new string[](len);\r\n    timestamps = new uint256[](len);\r\n\r\n    for (uint i = 0; i < len; i++) {\r\n        providers[i] = txs[i].provider;\r\n        amounts[i] = txs[i].amount;\r\n        serviceTypes[i] = txs[i].serviceType;\r\n        timestamps[i] = txs[i].timestamp;\r\n    }\r\n\r\n    return (providers, amounts, serviceTypes, timestamps);\r\n}\r\n\r\n\r\n\r\n\r\n\r\n    function addProvider(address provider) external onlyOwner {\r\n        approvedProviders[provider] = true;\r\n    }\r\n\r\n    function removeProvider(address provider) external onlyOwner {\r\n        approvedProviders[provider] = false;\r\n    }\r\n\r\n    function registerCitizen(address citizen) external onlyOwner {\r\n        eligibleCitizens[citizen] = true;\r\n    }\r\n\r\n    function grantAllowance(address citizen) external onlyOwner {\r\n        require(eligibleCitizens[citizen], \"Not eligible\");\r\n        _mint(citizen, annualAllowance);\r\n    }\r\n\r\n    function viewWallet() public view returns (uint256) {\r\n    return balanceOf(msg.sender);\r\n}\r\n\r\n\r\n    function emergencyGrant(address citizen, uint256 amount) external onlyOwner {\r\n        _mint(citizen, amount);\r\n    }\r\n\r\n    function deductTokensFrom(address patient, uint256 amount, string memory serviceType) external {\r\n        require(approvedProviders[msg.sender], \"Unauthorized provider\");\r\n        _transfer(patient, msg.sender, amount);\r\n        _recordTransaction(patient, msg.sender, amount, serviceType);\r\n    }\r\n\r\n    function _recordTransaction(address patient, address provider, uint256 amount, string memory serviceType) internal {\r\n        _transactions[patient].push(MedicalTransaction({\r\n            patient: patient,\r\n            provider: provider,\r\n            amount: amount,\r\n            serviceType: serviceType,\r\n            timestamp: block.timestamp\r\n        }));\r\n    }\r\n\r\n    function getTransactions(address patient) external view returns (MedicalTransaction[] memory) {\r\n        return _transactions[patient];\r\n    }\r\n\r\n    function averageCost(address patient) external view returns (uint256) {\r\n        MedicalTransaction[] memory txs = _transactions[patient];\r\n        if (txs.length == 0) return 0;\r\n        uint256 total;\r\n        for (uint i = 0; i < txs.length; i++) {\r\n            total += txs[i].amount;\r\n        }\r\n        return total / txs.length;\r\n    }\r\n\r\n    function compareCost(string memory serviceType) external view returns (uint256 average) {\r\n        uint256 total;\r\n        uint256 count;\r\n        for (uint i = 0; i < holders.length; i++) {\r\n            MedicalTransaction[] memory txs = _transactions[holders[i]];\r\n            for (uint j = 0; j < txs.length; j++) {\r\n                if (keccak256(bytes(txs[j].serviceType)) == keccak256(bytes(serviceType))) {\r\n                    total += txs[j].amount;\r\n                    count++;\r\n                }\r\n            }\r\n        }\r\n        return count == 0 ? 0 : total / count;\r\n    }\r\n\r\n    address[] private holders;\r\n\r\n    function _afterTokenTransfer(address from, address to, uint256) internal override {\r\n        if (!_existsInHolders(to)) {\r\n            holders.push(to);\r\n        }\r\n    }\r\n\r\n    function _existsInHolders(address user) private view returns (bool) {\r\n        for (uint i = 0; i < holders.length; i++) {\r\n            if (holders[i] == user) return true;\r\n        }\r\n        return false;\r\n    }\r\n}",
  "sourcePath": "/home/jonathon-delemos/Desktop/healthcare-token/contracts/HealthcareToken.sol",
  "compiler": {
    "name": "solc",
    "version": "0.8.0+commit.c7dfd78e.Emscripten.clang"
  },
  "schemaVersion": "3.4.16",
  "updatedAt": "2025-04-25T04:04:04.537Z",
  "networkType": "ethereum",
  "devdoc": {
    "kind": "dev",
    "methods": {
      "allowance(address,address)": {
        "details": "See {IERC20-allowance}."
      },
      "approve(address,uint256)": {
        "details": "See {IERC20-approve}. NOTE: If `amount` is the maximum `uint256`, the allowance is not updated on `transferFrom`. This is semantically equivalent to an infinite approval. Requirements: - `spender` cannot be the zero address."
      },
      "balanceOf(address)": {
        "details": "See {IERC20-balanceOf}."
      },
      "decimals()": {
        "details": "Returns the number of decimals used to get its user representation. For example, if `decimals` equals `2`, a balance of `505` tokens should be displayed to a user as `5.05` (`505 / 10 ** 2`). Tokens usually opt for a value of 18, imitating the relationship between Ether and Wei. This is the value {ERC20} uses, unless this function is overridden; NOTE: This information is only used for _display_ purposes: it in no way affects any of the arithmetic of the contract, including {IERC20-balanceOf} and {IERC20-transfer}."
      },
      "decreaseAllowance(address,uint256)": {
        "details": "Atomically decreases the allowance granted to `spender` by the caller. This is an alternative to {approve} that can be used as a mitigation for problems described in {IERC20-approve}. Emits an {Approval} event indicating the updated allowance. Requirements: - `spender` cannot be the zero address. - `spender` must have allowance for the caller of at least `subtractedValue`."
      },
      "increaseAllowance(address,uint256)": {
        "details": "Atomically increases the allowance granted to `spender` by the caller. This is an alternative to {approve} that can be used as a mitigation for problems described in {IERC20-approve}. Emits an {Approval} event indicating the updated allowance. Requirements: - `spender` cannot be the zero address."
      },
      "name()": {
        "details": "Returns the name of the token."
      },
      "owner()": {
        "details": "Returns the address of the current owner."
      },
      "renounceOwnership()": {
        "details": "Leaves the contract without owner. It will not be possible to call `onlyOwner` functions anymore. Can only be called by the current owner. NOTE: Renouncing ownership will leave the contract without an owner, thereby removing any functionality that is only available to the owner."
      },
      "symbol()": {
        "details": "Returns the symbol of the token, usually a shorter version of the name."
      },
      "totalSupply()": {
        "details": "See {IERC20-totalSupply}."
      },
      "transfer(address,uint256)": {
        "details": "See {IERC20-transfer}. Requirements: - `to` cannot be the zero address. - the caller must have a balance of at least `amount`."
      },
      "transferFrom(address,address,uint256)": {
        "details": "See {IERC20-transferFrom}. Emits an {Approval} event indicating the updated allowance. This is not required by the EIP. See the note at the beginning of {ERC20}. NOTE: Does not update the allowance if the current allowance is the maximum `uint256`. Requirements: - `from` and `to` cannot be the zero address. - `from` must have a balance of at least `amount`. - the caller must have allowance for ``from``'s tokens of at least `amount`."
      },
      "transferOwnership(address)": {
        "details": "Transfers ownership of the contract to a new account (`newOwner`). Can only be called by the current owner."
      }
    },
    "version": 1
  },
  "userdoc": {
    "kind": "user",
    "methods": {},
    "version": 1
  }
}