{
  "contractName": "HealthcareStableCoin",
  "abi": [
    {
      "inputs": [],
      "stateMutability": "nonpayable",
      "type": "constructor"
    },
    {
      "anonymous": false,
      "inputs": [
        {
          "indexed": true,
          "internalType": "address",
          "name": "owner",
          "type": "address"
        },
        {
          "indexed": true,
          "internalType": "address",
          "name": "spender",
          "type": "address"
        },
        {
          "indexed": false,
          "internalType": "uint256",
          "name": "value",
          "type": "uint256"
        }
      ],
      "name": "Approval",
      "type": "event"
    },
    {
      "anonymous": false,
      "inputs": [
        {
          "indexed": true,
          "internalType": "address",
          "name": "previousOwner",
          "type": "address"
        },
        {
          "indexed": true,
          "internalType": "address",
          "name": "newOwner",
          "type": "address"
        }
      ],
      "name": "OwnershipTransferred",
      "type": "event"
    },
    {
      "anonymous": false,
      "inputs": [
        {
          "indexed": true,
          "internalType": "address",
          "name": "from",
          "type": "address"
        },
        {
          "indexed": true,
          "internalType": "address",
          "name": "to",
          "type": "address"
        },
        {
          "indexed": false,
          "internalType": "uint256",
          "name": "value",
          "type": "uint256"
        }
      ],
      "name": "Transfer",
      "type": "event"
    },
    {
      "inputs": [
        {
          "internalType": "address",
          "name": "owner",
          "type": "address"
        },
        {
          "internalType": "address",
          "name": "spender",
          "type": "address"
        }
      ],
      "name": "allowance",
      "outputs": [
        {
          "internalType": "uint256",
          "name": "",
          "type": "uint256"
        }
      ],
      "stateMutability": "view",
      "type": "function",
      "constant": true
    },
    {
      "inputs": [],
      "name": "annualAllowance",
      "outputs": [
        {
          "internalType": "uint256",
          "name": "",
          "type": "uint256"
        }
      ],
      "stateMutability": "view",
      "type": "function",
      "constant": true
    },
    {
      "inputs": [
        {
          "internalType": "address",
          "name": "spender",
          "type": "address"
        },
        {
          "internalType": "uint256",
          "name": "amount",
          "type": "uint256"
        }
      ],
      "name": "approve",
      "outputs": [
        {
          "internalType": "bool",
          "name": "",
          "type": "bool"
        }
      ],
      "stateMutability": "nonpayable",
      "type": "function"
    },
    {
      "inputs": [
        {
          "internalType": "address",
          "name": "",
          "type": "address"
        }
      ],
      "name": "approvedProviders",
      "outputs": [
        {
          "internalType": "bool",
          "name": "",
          "type": "bool"
        }
      ],
      "stateMutability": "view",
      "type": "function",
      "constant": true
    },
    {
      "inputs": [
        {
          "internalType": "address",
          "name": "account",
          "type": "address"
        }
      ],
      "name": "balanceOf",
      "outputs": [
        {
          "internalType": "uint256",
          "name": "",
          "type": "uint256"
        }
      ],
      "stateMutability": "view",
      "type": "function",
      "constant": true
    },
    {
      "inputs": [],
      "name": "decimals",
      "outputs": [
        {
          "internalType": "uint8",
          "name": "",
          "type": "uint8"
        }
      ],
      "stateMutability": "view",
      "type": "function",
      "constant": true
    },
    {
      "inputs": [
        {
          "internalType": "address",
          "name": "spender",
          "type": "address"
        },
        {
          "internalType": "uint256",
          "name": "subtractedValue",
          "type": "uint256"
        }
      ],
      "name": "decreaseAllowance",
      "outputs": [
        {
          "internalType": "bool",
          "name": "",
          "type": "bool"
        }
      ],
      "stateMutability": "nonpayable",
      "type": "function"
    },
    {
      "inputs": [
        {
          "internalType": "address",
          "name": "",
          "type": "address"
        }
      ],
      "name": "eligibleCitizens",
      "outputs": [
        {
          "internalType": "bool",
          "name": "",
          "type": "bool"
        }
      ],
      "stateMutability": "view",
      "type": "function",
      "constant": true
    },
    {
      "inputs": [
        {
          "internalType": "address",
          "name": "spender",
          "type": "address"
        },
        {
          "internalType": "uint256",
          "name": "addedValue",
          "type": "uint256"
        }
      ],
      "name": "increaseAllowance",
      "outputs": [
        {
          "internalType": "bool",
          "name": "",
          "type": "bool"
        }
      ],
      "stateMutability": "nonpayable",
      "type": "function"
    },
    {
      "inputs": [],
      "name": "name",
      "outputs": [
        {
          "internalType": "string",
          "name": "",
          "type": "string"
        }
      ],
      "stateMutability": "view",
      "type": "function",
      "constant": true
    },
    {
      "inputs": [],
      "name": "owner",
      "outputs": [
        {
          "internalType": "address",
          "name": "",
          "type": "address"
        }
      ],
      "stateMutability": "view",
      "type": "function",
      "constant": true
    },
    {
      "inputs": [],
      "name": "renounceOwnership",
      "outputs": [],
      "stateMutability": "nonpayable",
      "type": "function"
    },
    {
      "inputs": [],
      "name": "symbol",
      "outputs": [
        {
          "internalType": "string",
          "name": "",
          "type": "string"
        }
      ],
      "stateMutability": "view",
      "type": "function",
      "constant": true
    },
    {
      "inputs": [],
      "name": "totalSupply",
      "outputs": [
        {
          "internalType": "uint256",
          "name": "",
          "type": "uint256"
        }
      ],
      "stateMutability": "view",
      "type": "function",
      "constant": true
    },
    {
      "inputs": [
        {
          "internalType": "address",
          "name": "to",
          "type": "address"
        },
        {
          "internalType": "uint256",
          "name": "amount",
          "type": "uint256"
        }
      ],
      "name": "transfer",
      "outputs": [
        {
          "internalType": "bool",
          "name": "",
          "type": "bool"
        }
      ],
      "stateMutability": "nonpayable",
      "type": "function"
    },
    {
      "inputs": [
        {
          "internalType": "address",
          "name": "from",
          "type": "address"
        },
        {
          "internalType": "address",
          "name": "to",
          "type": "address"
        },
        {
          "internalType": "uint256",
          "name": "amount",
          "type": "uint256"
        }
      ],
      "name": "transferFrom",
      "outputs": [
        {
          "internalType": "bool",
          "name": "",
          "type": "bool"
        }
      ],
      "stateMutability": "nonpayable",
      "type": "function"
    },
    {
      "inputs": [
        {
          "internalType": "address",
          "name": "newOwner",
          "type": "address"
        }
      ],
      "name": "transferOwnership",
      "outputs": [],
      "stateMutability": "nonpayable",
      "type": "function"
    },
    {
      "inputs": [
        {
          "internalType": "address",
          "name": "to",
          "type": "address"
        },
        {
          "internalType": "uint256",
          "name": "amount",
          "type": "uint256"
        }
      ],
      "name": "mint",
      "outputs": [],
      "stateMutability": "nonpayable",
      "type": "function"
    },
    {
      "inputs": [
        {
          "internalType": "address",
          "name": "provider",
          "type": "address"
        }
      ],
      "name": "addProvider",
      "outputs": [],
      "stateMutability": "nonpayable",
      "type": "function"
    },
    {
      "inputs": [
        {
          "internalType": "address",
          "name": "provider",
          "type": "address"
        }
      ],
      "name": "removeProvider",
      "outputs": [],
      "stateMutability": "nonpayable",
      "type": "function"
    },
    {
      "inputs": [
        {
          "internalType": "address",
          "name": "citizen",
          "type": "address"
        }
      ],
      "name": "registerCitizen",
      "outputs": [],
      "stateMutability": "nonpayable",
      "type": "function"
    },
    {
      "inputs": [
        {
          "internalType": "address",
          "name": "citizen",
          "type": "address"
        }
      ],
      "name": "grantAllowance",
      "outputs": [],
      "stateMutability": "nonpayable",
      "type": "function"
    },
    {
      "inputs": [],
      "name": "viewWallet",
      "outputs": [
        {
          "internalType": "uint256",
          "name": "",
          "type": "uint256"
        }
      ],
      "stateMutability": "view",
      "type": "function",
      "constant": true
    },
    {
      "inputs": [
        {
          "internalType": "address",
          "name": "citizen",
          "type": "address"
        },
        {
          "internalType": "uint256",
          "name": "amount",
          "type": "uint256"
        }
      ],
      "name": "emergencyGrant",
      "outputs": [],
      "stateMutability": "nonpayable",
      "type": "function"
    },
    {
      "inputs": [
        {
          "internalType": "address",
          "name": "patient",
          "type": "address"
        },
        {
          "internalType": "uint256",
          "name": "amount",
          "type": "uint256"
        },
        {
          "internalType": "string",
          "name": "serviceType",
          "type": "string"
        }
      ],
      "name": "deductTokensFrom",
      "outputs": [],
      "stateMutability": "nonpayable",
      "type": "function"
    },
    {
      "inputs": [
        {
          "internalType": "address",
          "name": "patient",
          "type": "address"
        }
      ],
      "name": "getTransactions",
      "outputs": [
        {
          "components": [
            {
              "internalType": "address",
              "name": "patient",
              "type": "address"
            },
            {
              "internalType": "address",
              "name": "provider",
              "type": "address"
            },
            {
              "internalType": "uint256",
              "name": "amount",
              "type": "uint256"
            },
            {
              "internalType": "string",
              "name": "serviceType",
              "type": "string"
            },
            {
              "internalType": "uint256",
              "name": "timestamp",
              "type": "uint256"
            }
          ],
          "internalType": "struct HealthcareStableCoin.MedicalTransaction[]",
          "name": "",
          "type": "tuple[]"
        }
      ],
      "stateMutability": "view",
      "type": "function",
      "constant": true
    },
    {
      "inputs": [
        {
          "internalType": "address",
          "name": "patient",
          "type": "address"
        }
      ],
      "name": "averageCost",
      "outputs": [
        {
          "internalType": "uint256",
          "name": "",
          "type": "uint256"
        }
      ],
      "stateMutability": "view",
      "type": "function",
      "constant": true
    },
    {
      "inputs": [
        {
          "internalType": "string",
          "name": "serviceType",
          "type": "string"
        }
      ],
      "name": "compareCost",
      "outputs": [
        {
          "internalType": "uint256",
          "name": "average",
          "type": "uint256"
        }
      ],
      "stateMutability": "view",
      "type": "function",
      "constant": true
    }
  ],
  "bytecode": "0x6080604052683635c9adc5dea000006009553480156200001e57600080fd5b506040518060400160405280601681526020017f4865616c74686361726520537461626c6520436f696e000000000000000000008152506040518060400160405280600381526020017f48534300000000000000000000000000000000000000000000000000000000008152508160039080519060200190620000a3929190620004c9565b508060049080519060200190620000bc929190620004c9565b505050620000df620000d36200012460201b60201c565b6200012c60201b60201c565b6200011e33620000f4620001f260201b60201c565b600a620001029190620006d4565b620f424062000112919062000811565b620001fb60201b60201c565b62000978565b600033905090565b6000600560009054906101000a900473ffffffffffffffffffffffffffffffffffffffff16905081600560006101000a81548173ffffffffffffffffffffffffffffffffffffffff021916908373ffffffffffffffffffffffffffffffffffffffff1602179055508173ffffffffffffffffffffffffffffffffffffffff168173ffffffffffffffffffffffffffffffffffffffff167f8be0079c531659141344cd1fd0a4f28419497f9722a3daafe3b4186f6b6457e060405160405180910390a35050565b60006012905090565b600073ffffffffffffffffffffffffffffffffffffffff168273ffffffffffffffffffffffffffffffffffffffff1614156200026e576040517f08c379a00000000000000000000000000000000000000000000000000000000081526004016200026590620005cc565b60405180910390fd5b62000282600083836200036960201b60201c565b80600260008282546200029691906200061c565b92505081905550806000808473ffffffffffffffffffffffffffffffffffffffff1673ffffffffffffffffffffffffffffffffffffffff168152602001908152602001600020600082825401925050819055508173ffffffffffffffffffffffffffffffffffffffff16600073ffffffffffffffffffffffffffffffffffffffff167fddf252ad1be2c89b69c2b068fc378daa952ba7f163c4a11628f55a4df523b3ef83604051620003499190620005ee565b60405180910390a362000365600083836200036e60201b60201c565b5050565b505050565b6200037f82620003ed60201b60201c565b620003e857600a829080600181540180825580915050600190039060005260206000200160009091909190916101000a81548173ffffffffffffffffffffffffffffffffffffffff021916908373ffffffffffffffffffffffffffffffffffffffff1602179055505b505050565b600080600090505b600a80549050811015620004be578273ffffffffffffffffffffffffffffffffffffffff16600a828154811062000455577f4e487b7100000000000000000000000000000000000000000000000000000000600052603260045260246000fd5b9060005260206000200160009054906101000a900473ffffffffffffffffffffffffffffffffffffffff1673ffffffffffffffffffffffffffffffffffffffff161415620004a8576001915050620004c4565b8080620004b590620008bf565b915050620003f5565b50600090505b919050565b828054620004d79062000889565b90600052602060002090601f016020900481019282620004fb576000855562000547565b82601f106200051657805160ff191683800117855562000547565b8280016001018555821562000547579182015b828111156200054657825182559160200191906001019062000529565b5b5090506200055691906200055a565b5090565b5b80821115620005755760008160009055506001016200055b565b5090565b600062000588601f836200060b565b91507f45524332303a206d696e7420746f20746865207a65726f2061646472657373006000830152602082019050919050565b620005c68162000872565b82525050565b60006020820190508181036000830152620005e78162000579565b9050919050565b6000602082019050620006056000830184620005bb565b92915050565b600082825260208201905092915050565b6000620006298262000872565b9150620006368362000872565b9250827fffffffffffffffffffffffffffffffffffffffffffffffffffffffffffffffff038211156200066e576200066d6200090d565b5b828201905092915050565b6000808291508390505b6001851115620006cb57808604811115620006a357620006a26200090d565b5b6001851615620006b35780820291505b8081029050620006c3856200096b565b945062000683565b94509492505050565b6000620006e18262000872565b9150620006ee836200087c565b92506200071d7fffffffffffffffffffffffffffffffffffffffffffffffffffffffffffffffff848462000725565b905092915050565b6000826200073757600190506200080a565b816200074757600090506200080a565b81600181146200076057600281146200076b57620007a1565b60019150506200080a565b60ff84111562000780576200077f6200090d565b5b8360020a9150848211156200079a57620007996200090d565b5b506200080a565b5060208310610133831016604e8410600b8410161715620007db5782820a905083811115620007d557620007d46200090d565b5b6200080a565b620007ea848484600162000679565b925090508184048111156200080457620008036200090d565b5b81810290505b9392505050565b60006200081e8262000872565b91506200082b8362000872565b9250817fffffffffffffffffffffffffffffffffffffffffffffffffffffffffffffffff04831182151516156200086757620008666200090d565b5b828202905092915050565b6000819050919050565b600060ff82169050919050565b60006002820490506001821680620008a257607f821691505b60208210811415620008b957620008b86200093c565b5b50919050565b6000620008cc8262000872565b91507fffffffffffffffffffffffffffffffffffffffffffffffffffffffffffffffff8214156200090257620009016200090d565b5b600182019050919050565b7f4e487b7100000000000000000000000000000000000000000000000000000000600052601160045260246000fd5b7f4e487b7100000000000000000000000000000000000000000000000000000000600052602260045260246000fd5b60008160011c9050919050565b612d4780620009886000396000f3fe608060405234801561001057600080fd5b50600436106101c45760003560e01c806370a08231116100f9578063a457c2d711610097578063aa78ce2211610071578063aa78ce221461052d578063c5a316b114610549578063dd62ed3e14610579578063f2fde38b146105a9576101c4565b8063a457c2d7146104b1578063a9059cbb146104e1578063a9a574eb14610511576101c4565b80638139ef9a116100d35780638139ef9a146104295780638a355a57146104595780638da5cb5b1461047557806395d89b4114610493576101c4565b806370a08231146103d3578063715018a6146104035780637ea415431461040d576101c4565b8063313ce5671161016657806340c10f191161014057806340c10f191461034d57806346e2577a146103695780635283f1461461038557806369d614a4146103a3576101c4565b8063313ce567146102e1578063322d8276146102ff578063395093511461031d576101c4565b80630f8cda20116101a25780630f8cda201461024757806315d7a2f91461027757806318160ddd1461029357806323b872dd146102b1576101c4565b806306fdde03146101c9578063095ea7b3146101e75780630e3f511814610217575b600080fd5b6101d16105c5565b6040516101de91906127de565b60405180910390f35b61020160048036038101906101fc91906120cd565b610657565b60405161020e91906127c3565b60405180910390f35b610231600480360381019061022c9190612170565b61067a565b60405161023e9190612980565b60405180910390f35b610261600480360381019061025c9190612019565b6109f6565b60405161026e91906127a1565b60405180910390f35b610291600480360381019061028c91906120cd565b610be6565b005b61029b610bfc565b6040516102a89190612980565b60405180910390f35b6102cb60048036038101906102c6919061207e565b610c06565b6040516102d891906127c3565b60405180910390f35b6102e9610c35565b6040516102f6919061299b565b60405180910390f35b610307610c3e565b6040516103149190612980565b60405180910390f35b610337600480360381019061033291906120cd565b610c44565b60405161034491906127c3565b60405180910390f35b610367600480360381019061036291906120cd565b610c7b565b005b610383600480360381019061037e9190612019565b610c91565b005b61038d610cf4565b60405161039a9190612980565b60405180910390f35b6103bd60048036038101906103b89190612019565b610d04565b6040516103ca91906127c3565b60405180910390f35b6103ed60048036038101906103e89190612019565b610d24565b6040516103fa9190612980565b60405180910390f35b61040b610d6c565b005b61042760048036038101906104229190612019565b610d80565b005b610443600480360381019061043e9190612019565b610e23565b60405161045091906127c3565b60405180910390f35b610473600480360381019061046e9190612019565b610e43565b005b61047d610ea6565b60405161048a9190612786565b60405180910390f35b61049b610ed0565b6040516104a891906127de565b60405180910390f35b6104cb60048036038101906104c691906120cd565b610f62565b6040516104d891906127c3565b60405180910390f35b6104fb60048036038101906104f691906120cd565b610fd9565b60405161050891906127c3565b60405180910390f35b61052b60048036038101906105269190612109565b610ffc565b005b61054760048036038101906105429190612019565b6110a4565b005b610563600480360381019061055e9190612019565b611107565b6040516105709190612980565b60405180910390f35b610593600480360381019061058e9190612042565b611395565b6040516105a09190612980565b60405180910390f35b6105c360048036038101906105be9190612019565b61141c565b005b6060600380546105d490612b9b565b80601f016020809104026020016040519081016040528092919081815260200182805461060090612b9b565b801561064d5780601f106106225761010080835404028352916020019161064d565b820191906000526020600020905b81548152906001019060200180831161063057829003601f168201915b5050505050905090565b6000806106626114a0565b905061066f8185856114a8565b600191505092915050565b600080600080600090505b600a805490508110156109d057600060086000600a84815481106106d2577f4e487b7100000000000000000000000000000000000000000000000000000000600052603260045260246000fd5b9060005260206000200160009054906101000a900473ffffffffffffffffffffffffffffffffffffffff1673ffffffffffffffffffffffffffffffffffffffff1673ffffffffffffffffffffffffffffffffffffffff168152602001908152602001600020805480602002602001604051908101604052809291908181526020016000905b828210156108db57838290600052602060002090600502016040518060a00160405290816000820160009054906101000a900473ffffffffffffffffffffffffffffffffffffffff1673ffffffffffffffffffffffffffffffffffffffff1673ffffffffffffffffffffffffffffffffffffffff1681526020016001820160009054906101000a900473ffffffffffffffffffffffffffffffffffffffff1673ffffffffffffffffffffffffffffffffffffffff1673ffffffffffffffffffffffffffffffffffffffff1681526020016002820154815260200160038201805461084090612b9b565b80601f016020809104026020016040519081016040528092919081815260200182805461086c90612b9b565b80156108b95780601f1061088e576101008083540402835291602001916108b9565b820191906000526020600020905b81548152906001019060200180831161089c57829003601f168201915b5050505050815260200160048201548152505081526020019060010190610757565b50505050905060005b81518110156109bb57868051906020012082828151811061092e577f4e487b7100000000000000000000000000000000000000000000000000000000600052603260045260246000fd5b6020026020010151606001518051906020012014156109a857818181518110610980577f4e487b7100000000000000000000000000000000000000000000000000000000600052603260045260246000fd5b602002602001015160400151856109979190612a7d565b945083806109a490612bcd565b9450505b80806109b390612bcd565b9150506108e4565b505080806109c890612bcd565b915050610685565b50600081146109ea5780826109e59190612ad3565b6109ed565b60005b92505050919050565b6060600860008373ffffffffffffffffffffffffffffffffffffffff1673ffffffffffffffffffffffffffffffffffffffff168152602001908152602001600020805480602002602001604051908101604052809291908181526020016000905b82821015610bdb57838290600052602060002090600502016040518060a00160405290816000820160009054906101000a900473ffffffffffffffffffffffffffffffffffffffff1673ffffffffffffffffffffffffffffffffffffffff1673ffffffffffffffffffffffffffffffffffffffff1681526020016001820160009054906101000a900473ffffffffffffffffffffffffffffffffffffffff1673ffffffffffffffffffffffffffffffffffffffff1673ffffffffffffffffffffffffffffffffffffffff16815260200160028201548152602001600382018054610b4090612b9b565b80601f0160208091040260200160405190810160405280929190818152602001828054610b6c90612b9b565b8015610bb95780601f10610b8e57610100808354040283529160200191610bb9565b820191906000526020600020905b815481529060010190602001808311610b9c57829003601f168201915b5050505050815260200160048201548152505081526020019060010190610a57565b505050509050919050565b610bee611673565b610bf882826116f1565b5050565b6000600254905090565b600080610c116114a0565b9050610c1e858285611848565b610c298585856118d4565b60019150509392505050565b60006012905090565b60095481565b600080610c4f6114a0565b9050610c70818585610c618589611395565b610c6b9190612a7d565b6114a8565b600191505092915050565b610c83611673565b610c8d82826116f1565b5050565b610c99611673565b6001600660008373ffffffffffffffffffffffffffffffffffffffff1673ffffffffffffffffffffffffffffffffffffffff16815260200190815260200160002060006101000a81548160ff02191690831515021790555050565b6000610cff33610d24565b905090565b60076020528060005260406000206000915054906101000a900460ff1681565b60008060008373ffffffffffffffffffffffffffffffffffffffff1673ffffffffffffffffffffffffffffffffffffffff168152602001908152602001600020549050919050565b610d74611673565b610d7e6000611b4c565b565b610d88611673565b600760008273ffffffffffffffffffffffffffffffffffffffff1673ffffffffffffffffffffffffffffffffffffffff16815260200190815260200160002060009054906101000a900460ff16610e14576040517f08c379a0000000000000000000000000000000000000000000000000000000008152600401610e0b906128a0565b60405180910390fd5b610e20816009546116f1565b50565b60066020528060005260406000206000915054906101000a900460ff1681565b610e4b611673565b6000600660008373ffffffffffffffffffffffffffffffffffffffff1673ffffffffffffffffffffffffffffffffffffffff16815260200190815260200160002060006101000a81548160ff02191690831515021790555050565b6000600560009054906101000a900473ffffffffffffffffffffffffffffffffffffffff16905090565b606060048054610edf90612b9b565b80601f0160208091040260200160405190810160405280929190818152602001828054610f0b90612b9b565b8015610f585780601f10610f2d57610100808354040283529160200191610f58565b820191906000526020600020905b815481529060010190602001808311610f3b57829003601f168201915b5050505050905090565b600080610f6d6114a0565b90506000610f7b8286611395565b905083811015610fc0576040517f08c379a0000000000000000000000000000000000000000000000000000000008152600401610fb790612940565b60405180910390fd5b610fcd82868684036114a8565b60019250505092915050565b600080610fe46114a0565b9050610ff18185856118d4565b600191505092915050565b600660003373ffffffffffffffffffffffffffffffffffffffff1673ffffffffffffffffffffffffffffffffffffffff16815260200190815260200160002060009054906101000a900460ff16611088576040517f08c379a000000000000000000000000000000000000000000000000000000000815260040161107f90612900565b60405180910390fd5b6110938333846118d4565b61109f83338484611c12565b505050565b6110ac611673565b6001600760008373ffffffffffffffffffffffffffffffffffffffff1673ffffffffffffffffffffffffffffffffffffffff16815260200190815260200160002060006101000a81548160ff02191690831515021790555050565b600080600860008473ffffffffffffffffffffffffffffffffffffffff1673ffffffffffffffffffffffffffffffffffffffff168152602001908152602001600020805480602002602001604051908101604052809291908181526020016000905b828210156112ed57838290600052602060002090600502016040518060a00160405290816000820160009054906101000a900473ffffffffffffffffffffffffffffffffffffffff1673ffffffffffffffffffffffffffffffffffffffff1673ffffffffffffffffffffffffffffffffffffffff1681526020016001820160009054906101000a900473ffffffffffffffffffffffffffffffffffffffff1673ffffffffffffffffffffffffffffffffffffffff1673ffffffffffffffffffffffffffffffffffffffff1681526020016002820154815260200160038201805461125290612b9b565b80601f016020809104026020016040519081016040528092919081815260200182805461127e90612b9b565b80156112cb5780601f106112a0576101008083540402835291602001916112cb565b820191906000526020600020905b8154815290600101906020018083116112ae57829003601f168201915b5050505050815260200160048201548152505081526020019060010190611169565b505050509050600081511415611307576000915050611390565b600080600090505b825181101561137d57828181518110611351577f4e487b7100000000000000000000000000000000000000000000000000000000600052603260045260246000fd5b602002602001015160400151826113689190612a7d565b9150808061137590612bcd565b91505061130f565b5081518161138b9190612ad3565b925050505b919050565b6000600160008473ffffffffffffffffffffffffffffffffffffffff1673ffffffffffffffffffffffffffffffffffffffff16815260200190815260200160002060008373ffffffffffffffffffffffffffffffffffffffff1673ffffffffffffffffffffffffffffffffffffffff16815260200190815260200160002054905092915050565b611424611673565b600073ffffffffffffffffffffffffffffffffffffffff168173ffffffffffffffffffffffffffffffffffffffff161415611494576040517f08c379a000000000000000000000000000000000000000000000000000000000815260040161148b90612820565b60405180910390fd5b61149d81611b4c565b50565b600033905090565b600073ffffffffffffffffffffffffffffffffffffffff168373ffffffffffffffffffffffffffffffffffffffff161415611518576040517f08c379a000000000000000000000000000000000000000000000000000000000815260040161150f90612920565b60405180910390fd5b600073ffffffffffffffffffffffffffffffffffffffff168273ffffffffffffffffffffffffffffffffffffffff161415611588576040517f08c379a000000000000000000000000000000000000000000000000000000000815260040161157f90612840565b60405180910390fd5b80600160008573ffffffffffffffffffffffffffffffffffffffff1673ffffffffffffffffffffffffffffffffffffffff16815260200190815260200160002060008473ffffffffffffffffffffffffffffffffffffffff1673ffffffffffffffffffffffffffffffffffffffff168152602001908152602001600020819055508173ffffffffffffffffffffffffffffffffffffffff168373ffffffffffffffffffffffffffffffffffffffff167f8c5be1e5ebec7d5bd14f71427d1e84f3dd0314c0f7b2291e5b200ac8c7c3b925836040516116669190612980565b60405180910390a3505050565b61167b6114a0565b73ffffffffffffffffffffffffffffffffffffffff16611699610ea6565b73ffffffffffffffffffffffffffffffffffffffff16146116ef576040517f08c379a00000000000000000000000000000000000000000000000000000000081526004016116e6906128c0565b60405180910390fd5b565b600073ffffffffffffffffffffffffffffffffffffffff168273ffffffffffffffffffffffffffffffffffffffff161415611761576040517f08c379a000000000000000000000000000000000000000000000000000000000815260040161175890612960565b60405180910390fd5b61176d60008383611d94565b806002600082825461177f9190612a7d565b92505081905550806000808473ffffffffffffffffffffffffffffffffffffffff1673ffffffffffffffffffffffffffffffffffffffff168152602001908152602001600020600082825401925050819055508173ffffffffffffffffffffffffffffffffffffffff16600073ffffffffffffffffffffffffffffffffffffffff167fddf252ad1be2c89b69c2b068fc378daa952ba7f163c4a11628f55a4df523b3ef836040516118309190612980565b60405180910390a361184460008383611d99565b5050565b60006118548484611395565b90507fffffffffffffffffffffffffffffffffffffffffffffffffffffffffffffffff81146118ce57818110156118c0576040517f08c379a00000000000000000000000000000000000000000000000000000000081526004016118b790612860565b60405180910390fd5b6118cd84848484036114a8565b5b50505050565b600073ffffffffffffffffffffffffffffffffffffffff168373ffffffffffffffffffffffffffffffffffffffff161415611944576040517f08c379a000000000000000000000000000000000000000000000000000000000815260040161193b906128e0565b60405180910390fd5b600073ffffffffffffffffffffffffffffffffffffffff168273ffffffffffffffffffffffffffffffffffffffff1614156119b4576040517f08c379a00000000000000000000000000000000000000000000000000000000081526004016119ab90612800565b60405180910390fd5b6119bf838383611d94565b60008060008573ffffffffffffffffffffffffffffffffffffffff1673ffffffffffffffffffffffffffffffffffffffff16815260200190815260200160002054905081811015611a45576040517f08c379a0000000000000000000000000000000000000000000000000000000008152600401611a3c90612880565b60405180910390fd5b8181036000808673ffffffffffffffffffffffffffffffffffffffff1673ffffffffffffffffffffffffffffffffffffffff16815260200190815260200160002081905550816000808573ffffffffffffffffffffffffffffffffffffffff1673ffffffffffffffffffffffffffffffffffffffff168152602001908152602001600020600082825401925050819055508273ffffffffffffffffffffffffffffffffffffffff168473ffffffffffffffffffffffffffffffffffffffff167fddf252ad1be2c89b69c2b068fc378daa952ba7f163c4a11628f55a4df523b3ef84604051611b339190612980565b60405180910390a3611b46848484611d99565b50505050565b6000600560009054906101000a900473ffffffffffffffffffffffffffffffffffffffff16905081600560006101000a81548173ffffffffffffffffffffffffffffffffffffffff021916908373ffffffffffffffffffffffffffffffffffffffff1602179055508173ffffffffffffffffffffffffffffffffffffffff168173ffffffffffffffffffffffffffffffffffffffff167f8be0079c531659141344cd1fd0a4f28419497f9722a3daafe3b4186f6b6457e060405160405180910390a35050565b600860008573ffffffffffffffffffffffffffffffffffffffff1673ffffffffffffffffffffffffffffffffffffffff1681526020019081526020016000206040518060a001604052808673ffffffffffffffffffffffffffffffffffffffff1681526020018573ffffffffffffffffffffffffffffffffffffffff16815260200184815260200183815260200142815250908060018154018082558091505060019003906000526020600020906005020160009091909190915060008201518160000160006101000a81548173ffffffffffffffffffffffffffffffffffffffff021916908373ffffffffffffffffffffffffffffffffffffffff16021790555060208201518160010160006101000a81548173ffffffffffffffffffffffffffffffffffffffff021916908373ffffffffffffffffffffffffffffffffffffffff160217905550604082015181600201556060820151816003019080519060200190611d81929190611ee4565b5060808201518160040155505050505050565b505050565b611da282611e0f565b611e0a57600a829080600181540180825580915050600190039060005260206000200160009091909190916101000a81548173ffffffffffffffffffffffffffffffffffffffff021916908373ffffffffffffffffffffffffffffffffffffffff1602179055505b505050565b600080600090505b600a80549050811015611ed9578273ffffffffffffffffffffffffffffffffffffffff16600a8281548110611e75577f4e487b7100000000000000000000000000000000000000000000000000000000600052603260045260246000fd5b9060005260206000200160009054906101000a900473ffffffffffffffffffffffffffffffffffffffff1673ffffffffffffffffffffffffffffffffffffffff161415611ec6576001915050611edf565b8080611ed190612bcd565b915050611e17565b50600090505b919050565b828054611ef090612b9b565b90600052602060002090601f016020900481019282611f125760008555611f59565b82601f10611f2b57805160ff1916838001178555611f59565b82800160010185558215611f59579182015b82811115611f58578251825591602001919060010190611f3d565b5b509050611f669190611f6a565b5090565b5b80821115611f83576000816000905550600101611f6b565b5090565b6000611f9a611f95846129e7565b6129b6565b905082815260208101848484011115611fb257600080fd5b611fbd848285612b59565b509392505050565b600081359050611fd481612ce3565b92915050565b600082601f830112611feb57600080fd5b8135611ffb848260208601611f87565b91505092915050565b60008135905061201381612cfa565b92915050565b60006020828403121561202b57600080fd5b600061203984828501611fc5565b91505092915050565b6000806040838503121561205557600080fd5b600061206385828601611fc5565b925050602061207485828601611fc5565b9150509250929050565b60008060006060848603121561209357600080fd5b60006120a186828701611fc5565b93505060206120b286828701611fc5565b92505060406120c386828701612004565b9150509250925092565b600080604083850312156120e057600080fd5b60006120ee85828601611fc5565b92505060206120ff85828601612004565b9150509250929050565b60008060006060848603121561211e57600080fd5b600061212c86828701611fc5565b935050602061213d86828701612004565b925050604084013567ffffffffffffffff81111561215a57600080fd5b61216686828701611fda565b9150509250925092565b60006020828403121561218257600080fd5b600082013567ffffffffffffffff81111561219c57600080fd5b6121a884828501611fda565b91505092915050565b60006121bd83836126e3565b905092915050565b6121ce81612b04565b82525050565b6121dd81612b04565b82525050565b60006121ee82612a27565b6121f88185612a4a565b93508360208202850161220a85612a17565b8060005b85811015612246578484038952815161222785826121b1565b945061223283612a3d565b925060208a0199505060018101905061220e565b50829750879550505050505092915050565b61226181612b16565b82525050565b600061227282612a32565b61227c8185612a5b565b935061228c818560208601612b68565b61229581612cd2565b840191505092915050565b60006122ab82612a32565b6122b58185612a6c565b93506122c5818560208601612b68565b6122ce81612cd2565b840191505092915050565b60006122e6602383612a6c565b91507f45524332303a207472616e7366657220746f20746865207a65726f206164647260008301527f65737300000000000000000000000000000000000000000000000000000000006020830152604082019050919050565b600061234c602683612a6c565b91507f4f776e61626c653a206e6577206f776e657220697320746865207a65726f206160008301527f64647265737300000000000000000000000000000000000000000000000000006020830152604082019050919050565b60006123b2602283612a6c565b91507f45524332303a20617070726f766520746f20746865207a65726f20616464726560008301527f73730000000000000000000000000000000000000000000000000000000000006020830152604082019050919050565b6000612418601d83612a6c565b91507f45524332303a20696e73756666696369656e7420616c6c6f77616e63650000006000830152602082019050919050565b6000612458602683612a6c565b91507f45524332303a207472616e7366657220616d6f756e742065786365656473206260008301527f616c616e636500000000000000000000000000000000000000000000000000006020830152604082019050919050565b60006124be600c83612a6c565b91507f4e6f7420656c696769626c6500000000000000000000000000000000000000006000830152602082019050919050565b60006124fe602083612a6c565b91507f4f776e61626c653a2063616c6c6572206973206e6f7420746865206f776e65726000830152602082019050919050565b600061253e602583612a6c565b91507f45524332303a207472616e736665722066726f6d20746865207a65726f20616460008301527f64726573730000000000000000000000000000000000000000000000000000006020830152604082019050919050565b60006125a4601583612a6c565b91507f556e617574686f72697a65642070726f766964657200000000000000000000006000830152602082019050919050565b60006125e4602483612a6c565b91507f45524332303a20617070726f76652066726f6d20746865207a65726f2061646460008301527f72657373000000000000000000000000000000000000000000000000000000006020830152604082019050919050565b600061264a602583612a6c565b91507f45524332303a2064656372656173656420616c6c6f77616e63652062656c6f7760008301527f207a65726f0000000000000000000000000000000000000000000000000000006020830152604082019050919050565b60006126b0601f83612a6c565b91507f45524332303a206d696e7420746f20746865207a65726f2061646472657373006000830152602082019050919050565b600060a0830160008301516126fb60008601826121c5565b50602083015161270e60208601826121c5565b5060408301516127216040860182612759565b50606083015184820360608601526127398282612267565b915050608083015161274e6080860182612759565b508091505092915050565b61276281612b42565b82525050565b61277181612b42565b82525050565b61278081612b4c565b82525050565b600060208201905061279b60008301846121d4565b92915050565b600060208201905081810360008301526127bb81846121e3565b905092915050565b60006020820190506127d86000830184612258565b92915050565b600060208201905081810360008301526127f881846122a0565b905092915050565b60006020820190508181036000830152612819816122d9565b9050919050565b600060208201905081810360008301526128398161233f565b9050919050565b60006020820190508181036000830152612859816123a5565b9050919050565b600060208201905081810360008301526128798161240b565b9050919050565b600060208201905081810360008301526128998161244b565b9050919050565b600060208201905081810360008301526128b9816124b1565b9050919050565b600060208201905081810360008301526128d9816124f1565b9050919050565b600060208201905081810360008301526128f981612531565b9050919050565b6000602082019050818103600083015261291981612597565b9050919050565b60006020820190508181036000830152612939816125d7565b9050919050565b600060208201905081810360008301526129598161263d565b9050919050565b60006020820190508181036000830152612979816126a3565b9050919050565b60006020820190506129956000830184612768565b92915050565b60006020820190506129b06000830184612777565b92915050565b6000604051905081810181811067ffffffffffffffff821117156129dd576129dc612ca3565b5b8060405250919050565b600067ffffffffffffffff821115612a0257612a01612ca3565b5b601f19601f8301169050602081019050919050565b6000819050602082019050919050565b600081519050919050565b600081519050919050565b6000602082019050919050565b600082825260208201905092915050565b600082825260208201905092915050565b600082825260208201905092915050565b6000612a8882612b42565b9150612a9383612b42565b9250827fffffffffffffffffffffffffffffffffffffffffffffffffffffffffffffffff03821115612ac857612ac7612c16565b5b828201905092915050565b6000612ade82612b42565b9150612ae983612b42565b925082612af957612af8612c45565b5b828204905092915050565b6000612b0f82612b22565b9050919050565b60008115159050919050565b600073ffffffffffffffffffffffffffffffffffffffff82169050919050565b6000819050919050565b600060ff82169050919050565b82818337600083830152505050565b60005b83811015612b86578082015181840152602081019050612b6b565b83811115612b95576000848401525b50505050565b60006002820490506001821680612bb357607f821691505b60208210811415612bc757612bc6612c74565b5b50919050565b6000612bd882612b42565b91507fffffffffffffffffffffffffffffffffffffffffffffffffffffffffffffffff821415612c0b57612c0a612c16565b5b600182019050919050565b7f4e487b7100000000000000000000000000000000000000000000000000000000600052601160045260246000fd5b7f4e487b7100000000000000000000000000000000000000000000000000000000600052601260045260246000fd5b7f4e487b7100000000000000000000000000000000000000000000000000000000600052602260045260246000fd5b7f4e487b7100000000000000000000000000000000000000000000000000000000600052604160045260246000fd5b6000601f19601f8301169050919050565b612cec81612b04565b8114612cf757600080fd5b50565b612d0381612b42565b8114612d0e57600080fd5b5056fea264697066735822122057e13c50870a1f480b26a7f1918d496510d3fdd48ae08719881e7fe082da640f64736f6c63430008000033",
  "immutableReferences": {},
  "source": "// SPDX-License-Identifier: MIT\r\npragma solidity ^0.8.0;\r\n\r\nimport \"@openzeppelin/contracts/token/ERC20/ERC20.sol\";\r\nimport \"@openzeppelin/contracts/access/Ownable.sol\";\r\n\r\ncontract HealthcareStableCoin is ERC20, Ownable {\r\n    struct MedicalTransaction {\r\n        address patient;\r\n        address provider;\r\n        uint256 amount;\r\n        string serviceType;\r\n        uint256 timestamp;\r\n    }\r\n\r\n    mapping(address => bool) public approvedProviders;\r\n    mapping(address => bool) public eligibleCitizens;\r\n    mapping(address => MedicalTransaction[]) private _transactions;\r\n\r\n    uint256 public annualAllowance = 1000 * 10 ** 18;\r\n\r\n    constructor() ERC20(\"Healthcare Stable Coin\", \"HSC\") {\r\n        _mint(msg.sender, 1_000_000 * 10 ** decimals());\r\n    }\r\n\r\n    function mint(address to, uint256 amount) public onlyOwner {\r\n    _mint(to, amount);\r\n}\r\n\r\n\r\n    function addProvider(address provider) external onlyOwner {\r\n        approvedProviders[provider] = true;\r\n    }\r\n\r\n    function removeProvider(address provider) external onlyOwner {\r\n        approvedProviders[provider] = false;\r\n    }\r\n\r\n    function registerCitizen(address citizen) external onlyOwner {\r\n        eligibleCitizens[citizen] = true;\r\n    }\r\n\r\n    function grantAllowance(address citizen) external onlyOwner {\r\n        require(eligibleCitizens[citizen], \"Not eligible\");\r\n        _mint(citizen, annualAllowance);\r\n    }\r\n\r\n    function viewWallet() public view returns (uint256) {\r\n    return balanceOf(msg.sender);\r\n}\r\n\r\n\r\n    function emergencyGrant(address citizen, uint256 amount) external onlyOwner {\r\n        _mint(citizen, amount);\r\n    }\r\n\r\n    function deductTokensFrom(address patient, uint256 amount, string memory serviceType) external {\r\n        require(approvedProviders[msg.sender], \"Unauthorized provider\");\r\n        _transfer(patient, msg.sender, amount);\r\n        _recordTransaction(patient, msg.sender, amount, serviceType);\r\n    }\r\n\r\n    function _recordTransaction(address patient, address provider, uint256 amount, string memory serviceType) internal {\r\n        _transactions[patient].push(MedicalTransaction({\r\n            patient: patient,\r\n            provider: provider,\r\n            amount: amount,\r\n            serviceType: serviceType,\r\n            timestamp: block.timestamp\r\n        }));\r\n    }\r\n\r\n    function getTransactions(address patient) external view returns (MedicalTransaction[] memory) {\r\n        return _transactions[patient];\r\n    }\r\n\r\n    function averageCost(address patient) external view returns (uint256) {\r\n        MedicalTransaction[] memory txs = _transactions[patient];\r\n        if (txs.length == 0) return 0;\r\n        uint256 total;\r\n        for (uint i = 0; i < txs.length; i++) {\r\n            total += txs[i].amount;\r\n        }\r\n        return total / txs.length;\r\n    }\r\n\r\n    function compareCost(string memory serviceType) external view returns (uint256 average) {\r\n        uint256 total;\r\n        uint256 count;\r\n        for (uint i = 0; i < holders.length; i++) {\r\n            MedicalTransaction[] memory txs = _transactions[holders[i]];\r\n            for (uint j = 0; j < txs.length; j++) {\r\n                if (keccak256(bytes(txs[j].serviceType)) == keccak256(bytes(serviceType))) {\r\n                    total += txs[j].amount;\r\n                    count++;\r\n                }\r\n            }\r\n        }\r\n        return count == 0 ? 0 : total / count;\r\n    }\r\n\r\n    address[] private holders;\r\n\r\n    function _afterTokenTransfer(address from, address to, uint256) internal override {\r\n        if (!_existsInHolders(to)) {\r\n            holders.push(to);\r\n        }\r\n    }\r\n\r\n    function _existsInHolders(address user) private view returns (bool) {\r\n        for (uint i = 0; i < holders.length; i++) {\r\n            if (holders[i] == user) return true;\r\n        }\r\n        return false;\r\n    }\r\n}",
  "sourcePath": "/home/jonathon-delemos/Desktop/healthcare-token/contracts/HealthcareToken.sol",
  "compiler": {
    "name": "solc",
    "version": "0.8.0+commit.c7dfd78e.Emscripten.clang"
  },
  "schemaVersion": "3.4.16",
  "updatedAt": "2025-04-24T19:20:25.070Z",
  "networkType": "ethereum",
  "devdoc": {
    "kind": "dev",
    "methods": {
      "allowance(address,address)": {
        "details": "See {IERC20-allowance}."
      },
      "approve(address,uint256)": {
        "details": "See {IERC20-approve}. NOTE: If `amount` is the maximum `uint256`, the allowance is not updated on `transferFrom`. This is semantically equivalent to an infinite approval. Requirements: - `spender` cannot be the zero address."
      },
      "balanceOf(address)": {
        "details": "See {IERC20-balanceOf}."
      },
      "decimals()": {
        "details": "Returns the number of decimals used to get its user representation. For example, if `decimals` equals `2`, a balance of `505` tokens should be displayed to a user as `5.05` (`505 / 10 ** 2`). Tokens usually opt for a value of 18, imitating the relationship between Ether and Wei. This is the value {ERC20} uses, unless this function is overridden; NOTE: This information is only used for _display_ purposes: it in no way affects any of the arithmetic of the contract, including {IERC20-balanceOf} and {IERC20-transfer}."
      },
      "decreaseAllowance(address,uint256)": {
        "details": "Atomically decreases the allowance granted to `spender` by the caller. This is an alternative to {approve} that can be used as a mitigation for problems described in {IERC20-approve}. Emits an {Approval} event indicating the updated allowance. Requirements: - `spender` cannot be the zero address. - `spender` must have allowance for the caller of at least `subtractedValue`."
      },
      "increaseAllowance(address,uint256)": {
        "details": "Atomically increases the allowance granted to `spender` by the caller. This is an alternative to {approve} that can be used as a mitigation for problems described in {IERC20-approve}. Emits an {Approval} event indicating the updated allowance. Requirements: - `spender` cannot be the zero address."
      },
      "name()": {
        "details": "Returns the name of the token."
      },
      "owner()": {
        "details": "Returns the address of the current owner."
      },
      "renounceOwnership()": {
        "details": "Leaves the contract without owner. It will not be possible to call `onlyOwner` functions anymore. Can only be called by the current owner. NOTE: Renouncing ownership will leave the contract without an owner, thereby removing any functionality that is only available to the owner."
      },
      "symbol()": {
        "details": "Returns the symbol of the token, usually a shorter version of the name."
      },
      "totalSupply()": {
        "details": "See {IERC20-totalSupply}."
      },
      "transfer(address,uint256)": {
        "details": "See {IERC20-transfer}. Requirements: - `to` cannot be the zero address. - the caller must have a balance of at least `amount`."
      },
      "transferFrom(address,address,uint256)": {
        "details": "See {IERC20-transferFrom}. Emits an {Approval} event indicating the updated allowance. This is not required by the EIP. See the note at the beginning of {ERC20}. NOTE: Does not update the allowance if the current allowance is the maximum `uint256`. Requirements: - `from` and `to` cannot be the zero address. - `from` must have a balance of at least `amount`. - the caller must have allowance for ``from``'s tokens of at least `amount`."
      },
      "transferOwnership(address)": {
        "details": "Transfers ownership of the contract to a new account (`newOwner`). Can only be called by the current owner."
      }
    },
    "version": 1
  },
  "userdoc": {
    "kind": "user",
    "methods": {},
    "version": 1
  }
}